:1000000012C0189518951895189518951895189563
:100010001895189518951895189518951895189578
:100020001895189518958FED8DBFC0ECE8EB4E2E06
:10003000DD275D2EA89584B7082E877F84BF88E1D1
:10004000992781BD91BDEEE7F0E0A0E6B0E08827FA
:100050008D933197E9F7662480E081BB8FEF87BBF2
:1000600074B7777F74BF8EE181BD86E081BD85E185
:1000700090E0ACE68D939C9380E090E0A0E68D93B9
:100080009C9380E090E0A2E68D939C9380E090E0CA
:10009000A4E68D939C9380E090E0A6E68D939C93DC
:1000A00080E090E0A8E68D939C9380E090E0AAE643
:1000B0008D939C9370E078BB81E080936E000091FB
:1000C0006E00063010F009F019C088B398E0892757
:1000D00088BB88B390E1892788BB88B390E28927E1
:1000E00088BB88B390E4892788BB88EC90E04ED128
:1000F000AEE68C918F5F8C9308F4E1CF88EE93E0AD
:1001000045D181B5886081BD70E078BB80993CC0E5
:10011000A0E60D911C910F5F1F4FA0E60D931C935D
:10012000A8E38C9180FBA8E38C9183F98C93A0E6E3
:100130000D911C910B3050E0150781E009F080E033
:100140008F93A6E60D911C91003050E0150781E0D9
:1001500009F080E09F918923882309F415C088B3B2
:1001600091E0892788BBA8E38C9180FBA8E38C9160
:1001700083F98C9380E090E0A0E68D939C9381E0DE
:1001800090E0A6E68D939C9381993CC0A2E60D91E8
:100190001C910F5F1F4FA2E60D931C93A8E38C9157
:1001A00081FBA8E38C9184F98C93A2E60D911C91BC
:1001B0000B3050E0150781E009F080E08F93A8E64E
:1001C0000D911C91003050E0150781E009F080E0AE
:1001D0009F918923882309F415C088B392E0892769
:1001E00088BBA8E38C9181FBA8E38C9184F98C9364
:1001F00080E090E0A2E68D939C9381E090E0A8E6F9
:100200008D939C9382993CC0A4E60D911C910F5F45
:100210001F4FA4E60D931C93A8E38C9182FBA8E3E7
:100220008C9185F98C93A4E60D911C910B3050E0D4
:10023000150781E009F080E08F93AAE60D911C91EB
:10024000003050E0150781E009F080E09F9189239C
:10025000882309F415C088B394E0892788BBA8E3F4
:100260008C9182FBA8E38C9185F98C9380E090E0DF
:10027000A4E68D939C9381E090E0AAE68D939C93F5
:10028000809B0BC080E090E0A6E68D939C9380E07D
:1002900090E0A0E68D939C93C398819B0BC080E077
:1002A00090E0A8E68D939C9380E090E0A2E68D9389
:1002B0009C93C498829B0BC080E090E0AAE68D934B
:1002C0009C9380E090E0A4E68D939C93C5988399DD
:1002D00006C082E390E05AD0C39AC49AC59A849922
:1002E00004C082E390E052D0C39A859904C082E3AF
:1002F00090E04CD0C49A869903C0C098C198C29827
:10030000ACE60D911C91003050E0150714F009F097
:1003100001C008C0ACE60D911C9101501040ACE644
:100320000D931C93ACE60D911C91063050E015071F
:1003300009F001C0C79AACE60D911C91013050E064
:10034000150709F001C0C798ACE60D911C9100306B
:1003500050E0150709F005C085E190E0ACE68D930B
:100360009C93A895C69A89E190E010D0C6988BE43A
:1003700090E00CD0CBCEF894FFCF3197F1F70895F1
:10038000689462F80895E89462F80895EF93FF93F3
:10039000EE27E82BE92B31F0E0EDF7E03197F1F7AC
:0A03A0000197D1F7FF91EF91089546
:00000001FF
