:1000000012C0189518951895189518951895189563
:100010001895189518951895189518951895189578
:100020001895189518958FED8DBFC8EBE0EA4E2E08
:10003000DD275D2EA89584B7082E877F84BF88E1D1
:10004000992781BD91BDEEE7F0E0A0E6B0E08827FA
:100050008D933197E9F7662480E081BB8FEF87BBF2
:1000600074B7777F74BF8EE181BD86E081BD70E09B
:1000700078BB81E080936600009166000F3010F03D
:1000800009F019C088B398E0892788BB88B390E14C
:10009000892788BB88B390E2892788BB88B390E41E
:1000A000892788BB88EC90E06FD2A6E68C918F5FA1
:1000B0008C9308F4E1CF80E08093660085E1809323
:1000C000650088EE93E060D281B5886081BDE0E094
:1000D000F0E0A8E3B0E07DD2C398C498C598C69874
:1000E000C798809932C080E090E0A7E68D939C93FA
:1000F00080E090E0A9E68D939C93A0E68C918F5FC1
:100100008C9385E180936400009160000B3081E066
:1001100009F080E08F93A3E68C9187FB81E00EF4D9
:1001200080E09F918923882309F40FC088B391E070
:10013000892788BB80E080936000709163007068BD
:100140007093630083E380936D0081992DC080E0FC
:1001500090E0A7E68D939C93A1E68C918F5F8C93A2
:1001600085E180936400009161000B3081E009F02B
:1001700080E08F93A3E68C9186FB81E00EF480E013
:100180009F918923882309F40FC088B392E08927BF
:1001900088BB80E08093610070916300706470930D
:1001A000630083E380936D0082992DC080E090E02E
:1001B000A7E68D939C93A2E68C918F5F8C9385E14B
:1001C00080936400009162000B3081E009F080E0D0
:1001D0008F93A3E68C9185FB81E00EF480E09F91E4
:1001E0008923882309F40FC088B394E0892788BB4A
:1001F00080E080936200709163007062709363008E
:1002000083E380936D00809B08C0709163007F77CB
:100210007093630080E080936000819B08C07091C0
:1002200063007F7B7093630080E080936100829B1A
:1002300008C0709163007F7D7093630080E08093BD
:10024000620000916400003010F009F001C005C0A8
:1002500080916400815080936400009164000130BB
:1002600010F009F001C015C0A8E38C9180FBA8E351
:100270008C9183F98C93A8E38C9181FBA8E38C91FA
:1002800084F98C93A8E38C9182FBA8E38C9185F987
:100290008C9300916400013009F003C0C398C498A6
:1002A000C598839903C08FE1809366000091660032
:1002B000003010F009F001C005C080916600815047
:1002C00080936600A0E30C9105FB81E00EF480E0D2
:1002D0008F93A8E30C9100FB81E00EF480E09F91E6
:1002E0008923882309F409C0C09A81EB94E0A9E628
:1002F0008D939C9383E380936D00009166000030A2
:1003000080E010F009F081E08F93A9E60D911C9137
:10031000003050E0150780E014F009F081E09F9173
:100320008923882309F405C081EB94E0A9E68D9325
:100330009C93A9E60D911C91003050E0150780E0D8
:1003400014F009F081E08F9300916C00003081E09F
:1003500009F080E09F918923882309F412C000915D
:100360006600003009F003C08BE080936C000091C0
:100370006600003010F009F001C003C087E08093F0
:100380006C0000916C00003010F009F001C005C055
:1003900080916C00815080936C0000916C0006305D
:1003A00009F001C0C39A00916C00013009F001C04E
:1003B000C398A9E60D911C91003050E0150714F088
:1003C00009F001C002C0A9E6CFD0A9E60D911C91A9
:1003D000013050E0150709F004C0C09883E3809312
:1003E0006D00869910C0C098C198C29880E090E0D6
:1003F000A7E68D939C9380E090E0A9E68D939C9373
:1004000083E380936D00849905C083EC91E0A7E6B7
:100410008D939C93A7E60D911C91003050E0150739
:1004200080E014F009F081E08F9300916B000030C0
:1004300081E009F080E09F918923882309F419C0A5
:10044000A7E60D911C91043650E0150714F009F051
:1004500001C003C080E180936B00A7E60D911C9161
:10046000043650E0150714F009F003C086E08093CD
:100470006B0000916B00003010F009F001C005C066
:1004800080916B00815080936B0000916B00033072
:1004900009F003C0C39AC49AC59A00916B00013059
:1004A00009F003C0C398C498C598A7E60D911C91A4
:1004B000003050E0150714F009F001C002C0A7E6B3
:1004C00053D0A7E60D911C91013050E0150709F0BB
:1004D0000BC080E090E0A9E68D939C93C098C198F2
:1004E000C29883E380936D0000916D00003010F09E
:1004F00009F001C005C080916D00815080936D00AE
:1005000000916D00013009F006C0E0E0F0E0A8E3E2
:10051000B0E07BE74DD000916500003010F009F0AD
:1005200001C005C0809165008150809365000091F5
:100530006500063009F002C0C79AC69A00916500AE
:10054000013009F002C0C798C698009165000030DC
:1005500009F003C085E180936500A89584E690E0EA
:1005600013D0BFCDF894FFCFED91FC91E150F04056
:10057000FC93EE9308953197F1F70895689462F82B
:100580000895E89462F80895EF93FF93EE27E82B1F
:10059000E92B31F0E8EEF3E03197F1F70197D1F76D
:1005A000FF91EF910895E199FECFEEBB319608954A
:1005B00091E001C092E07B3751F47FB7F894F3DF0C
:1005C0008D918DBBE29AE19A9A95C9F77FBF772703
:1005D000089591E001C092E0E6DFE09A8DB38D933B
:0605E0009A95D1F7089581
:00000001FF
