:1000000012C0189518951895189518951895189563
:100010001895189518951895189518951895189578
:100020001895189518958FED8DBFC8EBE0EA4E2E08
:10003000DD275D2EA89584B7082E877F84BF88E1D1
:10004000992781BD91BDEEE7F0E0A0E6B0E08827FA
:100050008D933197E9F7662480E081BB8FEF87BBF2
:1000600074B7777F74BF8EE181BD86E081BD85E185
:1000700090E0ACE68D939C9380E090E0A0E68D93B9
:100080009C9380E090E0A2E68D939C9380E090E0CA
:10009000A4E68D939C9380E090E0A6E68D939C93DC
:1000A00080E090E0A8E68D939C9380E090E0AAE643
:1000B0008D939C9380E090E0AFE68D939C9380E0DD
:1000C00090E0A1E78D939C9370E078BB81E08093F2
:1000D0006E0000916E00063010F009F019C088B370
:1000E00098E0892788BB88B390E1892788BB88B3CB
:1000F00090E2892788BB88B390E4892788BB88EC85
:1001000090E0A8D1AEE68C918F5F8C9308F4E1CF9C
:1001100088EE93E09FD181B5886081BD70E078BBA7
:10012000809941C080E090E0AFE68D939C93A0E67B
:100130000D911C910F5F1F4FA0E60D931C93A8E338
:100140008C9180FBA8E38C9183F98C93A0E60D91B0
:100150001C910B3050E0150781E009F080E08F938F
:10016000A6E60D911C91003050E0150781E009F0E2
:1001700080E09F918923882309F415C088B391E01A
:10018000892788BBA8E38C9180FBA8E38C9183F935
:100190008C9380E090E0A0E68D939C9381E090E0CA
:1001A000A6E68D939C93819941C080E090E0AFE6F4
:1001B0008D939C93A2E60D911C910F5F1F4FA2E6B9
:1001C0000D931C93A8E38C9181FBA8E38C9184F997
:1001D0008C93A2E60D911C910B3050E0150781E045
:1001E00009F080E08F93A8E60D911C91003050E05B
:1001F000150781E009F080E09F918923882309F4A5
:1002000015C088B392E0892788BBA8E38C9181FB55
:10021000A8E38C9184F98C9380E090E0A2E68D9322
:100220009C9381E090E0A8E68D939C93829941C0D5
:1002300080E090E0AFE68D939C93A4E60D911C9135
:100240000F5F1F4FA4E60D931C93A8E38C9182FBD4
:10025000A8E38C9185F98C93A4E60D911C910B3049
:1002600050E0150781E009F080E08F93AAE60D9138
:100270001C91003050E0150781E009F080E09F916B
:100280008923882309F415C088B394E0892788BBA3
:10029000A8E38C9182FBA8E38C9185F98C9380E094
:1002A00090E0A4E68D939C9381E090E0AAE68D9384
:1002B0009C93809B0BC080E090E0A6E68D939C937E
:1002C00080E090E0A0E68D939C93C398819B0BC047
:1002D00080E090E0A8E68D939C9380E090E0A2E619
:1002E0008D939C93C498829B0BC080E090E0AAE61B
:1002F0008D939C9380E090E0A4E68D939C93C598A9
:10030000839906C082E390E0A5D0C39AC49AC59AA7
:1003100084990BC082EC91E0AFE68D939C9382E3CD
:1003200090E098D0C39AC49AC59A859906C0C09A9D
:1003300088E592E0A1E78D939C93869908C0C098C8
:10034000C198C29880E090E0A1E78D939C93A1E7CB
:100350000D911C91003050E0150714F009F001C018
:1003600008C0A1E70D911C9101501040A1E70D9329
:100370001C93A1E70D911C91013050E0150709F085
:1003800001C0C098AFE60D911C91003050E01507F8
:1003900014F009F001C008C0AFE60D911C910150A6
:1003A0001040AFE60D931C93AFE60D911C91013008
:1003B00050E0150709F008C0C098C198C29880E0C5
:1003C00090E0A1E78D939C93ACE60D911C910030D9
:1003D00050E0150714F009F001C008C0ACE60D911B
:1003E0001C9101501040ACE60D931C93ACE60D91AE
:1003F0001C91063050E0150709F001C0C79AACE621
:100400000D911C91013050E0150709F001C0C7980B
:10041000ACE60D911C91003050E0150709F005C0C5
:1004200085E190E0ACE68D939C93A895C69A89E10E
:1004300090E010D0C6988BE490E00CD071CEF89488
:10044000FFCF3197F1F70895689462F80895E89422
:1004500062F80895EF93FF93EE27E82BE92B31F034
:10046000E8EEF3E03197F1F70197D1F7FF91EF91C3
:020470000895ED
:00000001FF
